:100000002C0600209D090000150A00001D0A0000B2
:10001000250A0000250A0000250A00000000000053
:10002000000000000000000000000000250A0000A1
:10003000250A000000000000250A0000250A000033
:10004000250A0000250A0000250A0000250A0000F4
:10005000250A0000250A0000250A0000250A0000E4
:10006000250A0000250A0000250A0000250A0000D4
:10007000250A0000250A0000250A0000250A0000C4
:10008000250A0000250A0000250A0000250A0000B4
:10009000250A0000250A0000250A0000250A0000A4
:1000A000250A0000250A0000250A0000250A000094
:1000B000250A0000250A0000250A0000250A000084
:1000C000250A0000250A0000250A0000250A000074
:1000D000250A0000250A0000250A0000250A000064
:1000E000250A00000000000000000000250A0000B2
:1000F000250A0000250A0000250A0000250A000044
:10010000250A0000250A0000250A0000250A000033
:100110000000000000000000250A0000250A000081
:10012000250A0000250A0000250A0000250A000013
:10013000250A0000250A0000250A0000250A000003
:1001400000000000000000000000000000000000AF
:10015000250A0000250A0000250A0000250A0000E3
:10016000000000000000000000000000000000008F
:10017000000000000000000000000000000000007F
:10018000000000000000000000000000000000006F
:10019000000000000000000000000000000000005F
:1001A000000000000000000000000000000000004F
:1001B000250A0000250A0000250A0000250A000083
:1001C000250A0000250A0000250A0000250A000073
:1001D000250A0000250A0000250A0000250A000063
:1001E000250A0000250A0000250A00000000000082
:1001F00000000000250A0000250A0000250A000072
:10020000250A0000250A0000000000000000000090
:10021000250A0000250A0000250A0000250A000022
:10022000250A0000250A0000250A0000250A000012
:10023000250A0000250A0000250A0000250A000002
:10024000250A0000250A0000250A0000250A0000F2
:10025000250A0000250A0000250A0000250A0000E2
:10026000250A0000250A0000250A000080B483B09A
:1002700000AF4EF20813C4F20F034EF20812C4F29C
:100280000F02126842F010021A604EF20863C4F2C4
:100290000F031B687B6044F22053C4F2020344F254
:1002A0004B32C4F64F421A6044F22453C4F20203A4
:1002B00030221A6044F22853C4F2020300221A606A
:1002C00044F22C53C4F2020300221A604FF4884314
:1002D000C4F2020330221A6044F22043C4F2020343
:1002E00000221A6044F21053C4F2020330221A6052
:1002F00044F21C53C4F2020330221A600C37BD468C
:100300005DF8047B704700BF80B483B000AF4EF24D
:100310000813C4F20F034EF20812C4F20F0212685F
:1003200042F008021A604EF20813C4F20F031B6871
:100330007B604FF4E843C4F200034FF4E842C4F298
:100340000002126842F00F021A6047F22043C4F222
:10035000000347F22042C4F20002126822F00F02AA
:100360001A6047F21C53C4F2000347F21C52C4F255
:100370000002126842F00F021A600C37BD465DF8A9
:10038000047B704780B483B000AF4EF20813C4F210
:100390000F034EF20812C4F20F02126842F001027B
:1003A0001A604EF20813C4F20F031B687B604FF40F
:1003B0008843C4F200034FF48842C4F2000212687A
:1003C00042F0FF021A6044F22043C4F2000344F2F8
:1003D0002042C4F20002126822F0FF021A6044F2C6
:1003E0001C53C4F2000344F21C52C4F2000212680F
:1003F00042F0FF021A600C37BD465DF8047B70477F
:1004000080B500AF4FF48040C4F2020020210022EA
:1004100000F0CAFB4FF48040C4F2020020212022E9
:1004200000F0C2FB4FF48040C4F202002021002201
:1004300000F0BAFB80BD00BF80B500AF4FF4804034
:10044000C4F202001021002200F0AEFB80BD00BF0C
:1004500080B500AF4FF48040C4F20200102110229A
:1004600000F0A2FB80BD00BF80B582B000AF0346A4
:100470003960FB713B68002B02D0FFF7E9FF01E018
:10048000FFF7DAFF4FF4C87000F0B8FB97F90730B8
:100490001B11DBB2DBB24FF4E040C4F200000F21CD
:1004A0001A4600F081FBFFF7ABFFFB794FF4E04009
:1004B000C4F200000F211A4600F076FBFFF7A0FF00
:1004C0000837BD4680BD00BF80B584B000AF02468E
:1004D0000B46FA71BB710023FB7397F90730002BB1
:1004E00002D10023FB7305E097F90730012B01D1FE
:1004F0004023FB73FA7BBB791343FB73FB7B63F0F5
:100500007F03DBB25BB218460021FFF7ADFF103767
:10051000BD4680BD80B500AF01200021FFF7A4FFDC
:1005200002200021FFF7A0FF47F2305000F066FBE9
:1005300080BD00BF80B500AF0C200021FFF794FF05
:1005400080BD00BF80B500AF40F60300CFF20000D1
:1005500000F03CFB40F60400CFF2000000F036FB58
:100560004FF4E040C4F200000F2100F020FB4FF4F4
:100570008040C4F20200302100F019FB4FF4E0404B
:10058000C4F200000F21002200F00EFB4FF4804067
:10059000C4F202003021002200F006FB42F210708B
:1005A00000F02CFBFFF748FF43F6982000F026FBF5
:1005B0004FF4E040C4F200000F21022200F0F4FAF0
:1005C000FFF71EFF4FF4E040C4F200000F210222AB
:1005D00000F0EAFAFFF714FF28200021FFF744FF9C
:1005E000FFF7A8FF06200021FFF73EFFFFF792FF6D
:1005F00080BD00BF80B584B000AF78607B68FB60D1
:1006000009E0FB681B785BB218460121FFF72CFF5D
:10061000FB680133FB60FB68002B03D0FB681B7891
:10062000002BEED11037BD4680BD00BF80B500AFB6
:1006300018200021FFF718FF80BD00BF80B500AF74
:100640001E200021FFF710FF80BD00BF80B500AF66
:10065000FFF75AFEFFF70AFEFFF794FE47F2FC335E
:10066000C4F2000347F2FC32C4F20002126842F006
:1006700001021A6047F2FC33C4F2000347F2FC3275
:10068000C4F20002126842F002021A6047F2FC3320
:10069000C4F2000347F2FC32C4F20002126842F0D6
:1006A00004021A6047F2FC33C4F2000347F2FC3242
:1006B000C4F20002126842F008021A6044F2FC33ED
:1006C000C4F2020344F2FC32C4F20202126842F0A5
:1006D00010021A6044F2FC33C4F2020344F2FC320A
:1006E000C4F20202126842F020021A6080BD00BF0C
:1006F00080B500AF40F67450C0F20000FFF77AFFFB
:1007000001200021FFF7E0FE4FF4D850C0F2B700FF
:1007100000F074FA40F68450C0F20000FFF76AFF60
:1007200080BD00BF80B500AF01200021FFF7CCFEE7
:1007300040F69450C0F20000FFF75CFF002000215B
:10074000FFF7C2FE4FF4D850C0F2B70000F056FADF
:1007500040F6A450C0F20000FFF74CFF80BD00BF80
:1007600080B582B000AF00200021FFF7ADFE40F65B
:10077000A450C0F20000FFF73DFF00237B600AE0B9
:10078000FFF75CFF4FF4D450C0F2060000F036FAD9
:100790007B6801337B607B68272BF1DD0120002122
:1007A000FFF792FE40F69450C0F20000FFF722FFE0
:1007B00000237B600AE0FFF741FF4FF4D450C0F202
:1007C000060000F01BFA7B6801337B607B68272BF7
:1007D000F1DD0837BD4680BD80B582B000AF002096
:1007E0000521FFF771FE40F6A450C0F20000FFF7AC
:1007F00001FF00237B600AE0FFF718FF4FF4D4509D
:10080000C0F2060000F0FAF97B6801337B607B6878
:10081000272BF1DD01200321FFF756FE40F694500F
:10082000C0F20000FFF7E6FE00237B600AE0FFF75E
:10083000FDFE4FF4D450C0F2060000F0DFF97B68F3
:1008400001337B607B68272BF1DD0837BD4680BD17
:1008500080B582B000AFFFF7F9FE4FF4A860C0F298
:10086000C03000F0CFF9FFF76DFE00F05FFA0246EE
:10087000D3179B0F1A4402F00302D31A7B607B68E4
:10088000002B1FD144F2FC33C4F2000344F2FC32CB
:10089000C4F20002126842F004021A60FFF728FF57
:1008A0004FF41050C0F2F40000F0A8F944F2FC3309
:1008B000C4F2000344F2FC32C4F20002126822F0D7
:1008C00004021A607B68012B1FD144F2FC33C4F28E
:1008D000000344F2FC32C4F20002126842F0080243
:1008E0001A60FFF71FFF4FF41050C0F2F40000F041
:1008F00085F944F2FC33C4F2000344F2FC32C4F242
:100900000002126822F008021A607B68022B1FD1D5
:1009100044F2FC33C4F2000344F2FC32C4F200029D
:10092000126842F010021A60FFF71AFF4FF490505D
:10093000C0F27A0000F062F944F2FC33C4F2000322
:1009400044F2FC32C4F20002126822F010021A6073
:100950007B68032B1FD144F2FC33C4F2000344F242
:10096000FC32C4F20002126842F020021A60FFF763
:1009700033FF4FF49050C0F27A0000F03FF944F298
:10098000FC33C4F2000344F2FC32C4F200021268E9
:1009900022F020021A60FFF7BDFD66E780B582B045
:1009A00000AF40F6B453C0F200037B6040F2000396
:1009B000C2F200033B6007E03B681A1D3A607A68A8
:1009C000111D796012681A603A6840F22C43C2F235
:1009D00000039A42F0D30D480D494FF000028842BF
:1009E000B8BF40F8042BFADB4EF68853CEF2000372
:1009F0004EF68852CEF20002126842F470021A607B
:100A0000FFF726FF0837BD4680BD00002C040020FC
:100A10002C06002080B400AFFEE700BF80B400AF1A
:100A2000FEE700BF80B400AFFEE700BFD0F800349F
:100A300012F0010F10B500F5806414BF0B438B4317
:100A4000236012F0020FD0F8202400F5846314BF55
:100A5000114322EA0101196010BDF0B5560906F0F4
:100A60000306002451FA04F515F0010F11D0D0F857
:100A7000C47F65004FF0030C0CFA05FC27EA0C0755
:100A8000C0F8C47FD0F8C47F16FA05F53D43C0F81E
:100A9000C45F0134082CE5D1D0F8004512F0010FF5
:100AA00000F5A06514BF0C438C432C60D0F80455AE
:100AB00000F5A06412F0020F04F1040414BF0D430A
:100AC0008D432560D0F8084512F0040F00F5A165AC
:100AD00014BF0C438C432C60D0F8184512F0080F5B
:100AE00000F5A36514BF0C438C432C60D0F83C4543
:100AF00012F0100F00F5A66202F10C0214BF0C43B5
:100B00008C431460D0F80C4500F5A06213F0010F7F
:100B100002F10C0214BF0C438C431460D0F8102572
:100B200013F0020F00F5A26414BF0A438A43226047
:100B3000D0F8144500F5A26213F0040F02F104028C
:100B400014BF0C438C431460D0F81C4500F5A2621E
:100B500013F0080F02F10C0214BF0C438C43146015
:100B6000D0F8444500F5A86213F4007F02F10402B6
:100B700014BF0C438C431460D0F8402513F4407F1D
:100B800000F5A86414BF0A438A43226000F5A562F9
:100B900023B9D0F8283543EA010103E0D0F828351D
:100BA00023EA01011160F0BD40F82120704770B5C3
:100BB0000122082305460C46FFF74FFF2846214631
:100BC0000122BDE87040FFF731BF00000A4B00F47E
:100BD0007F4200F0FF0003EB1223800003F070421D
:100BE00040F0007023F07F43104323F4700340EA89
:100BF000431301221A60704700E60F400138FDD10F
:100C0000704700004149F0B5414E0D68346845F425
:100C1000006525F4800344F4006415F0010F0B60B7
:100C2000346016D010F0010F13D160F001021340B0
:100C3000384A4FF4807515600B604FF4002201E0D4
:100C4000013A62D03449096811F4807FF8D0002A53
:100C50005BD000F4FE6223F4FE6330492D4E134353
:100C600024F0004200EA010122F0700241EA02028F
:100C700000F0080142EAC102244C2549236000F437
:100C800000550A6023F4005322F400522B434027FE
:100C90002A4337604EBF0A6023600A60204948BF7C
:100CA000236023F0F86300EA010123F001030B4302
:100CB00022F0FC5200F0FC5110F0804F42EA010299
:100CC00008D0184922F4800200EA010143F48003AD
:100CD0000A4301E022F0804210F4006F0CD14FF47F
:100CE00000411148006810F0010F01D10139F8D11D
:100CF00023F4006322F4006204490B60044B1020CB
:100D00001A60BDE8F040FFF779BFF0BD60E00F402A
:100D100070E00F4058E00F4050E00F40300000807E
:100D20000100C0070000404068E10F4010B440F2ED
:100D30002843C2F200034FF22D401968D1F8A820D1
:100D4000D1F8AC40C5F6510047F62D7300FB02F018
:100D5000C4F6954303FB0404A2FB0323234401329E
:100D600043F10003C1E92A2323F000405DF8044B5E
:100D7000704700BF4B6F6361656C6920556E6920D9
:100D800000000000456D726520427579756B6164E5
:100D900061000000456D726520425559554B414434
:100DA000410000004B6F6361656C6920556E6900FE
:040DB00043000000FC
:100DB40000000000EC02002054030020BC030020CB
:100DC400000000000000000000000000000000001F
:100DD400000000000000000000000000000000000F
:100DE40000000000B00D0000000000000000000042
:100DF40000000000000000000000000000000000EF
:100E040000000000000000000000000000000000DE
:100E140000000000000000000000000000000000CE
:100E240000000000000000000000000000000000BE
:100E340000000000000000000000000000000000AE
:100E4400000000000000000000000000000000009E
:100E5400000000000000000001000000000000008D
:100E64000E33CDAB34126DE6ECDE05000B00000052
:100E7400000000000000000000000000000000006E
:100E8400000000000000000000000000000000005E
:100E9400000000000000000000000000000000004E
:100EA400000000000000000000000000000000003E
:0C11D400000000000000000000000020EF
:00000001FF
